{"abi":[{"type":"function","name":"DOMAIN_SEPARATOR","inputs":[],"outputs":[{"name":"","type":"bytes32","internalType":"bytes32"}],"stateMutability":"view"},{"type":"function","name":"allowance","inputs":[{"name":"","type":"address","internalType":"address"},{"name":"","type":"address","internalType":"address"}],"outputs":[{"name":"","type":"uint256","internalType":"uint256"}],"stateMutability":"view"},{"type":"function","name":"approve","inputs":[{"name":"spender","type":"address","internalType":"address"},{"name":"amount","type":"uint256","internalType":"uint256"}],"outputs":[{"name":"","type":"bool","internalType":"bool"}],"stateMutability":"nonpayable"},{"type":"function","name":"balanceOf","inputs":[{"name":"","type":"address","internalType":"address"}],"outputs":[{"name":"","type":"uint256","internalType":"uint256"}],"stateMutability":"view"},{"type":"function","name":"decimals","inputs":[],"outputs":[{"name":"","type":"uint8","internalType":"uint8"}],"stateMutability":"view"},{"type":"function","name":"initialize","inputs":[{"name":"_name","type":"string","internalType":"string"},{"name":"_symbol","type":"string","internalType":"string"},{"name":"_decimals","type":"uint8","internalType":"uint8"}],"outputs":[],"stateMutability":"nonpayable"},{"type":"function","name":"name","inputs":[],"outputs":[{"name":"","type":"string","internalType":"string"}],"stateMutability":"view"},{"type":"function","name":"nonces","inputs":[{"name":"","type":"address","internalType":"address"}],"outputs":[{"name":"","type":"uint256","internalType":"uint256"}],"stateMutability":"view"},{"type":"function","name":"permit","inputs":[{"name":"owner","type":"address","internalType":"address"},{"name":"spender","type":"address","internalType":"address"},{"name":"value","type":"uint256","internalType":"uint256"},{"name":"deadline","type":"uint256","internalType":"uint256"},{"name":"v","type":"uint8","internalType":"uint8"},{"name":"r","type":"bytes32","internalType":"bytes32"},{"name":"s","type":"bytes32","internalType":"bytes32"}],"outputs":[],"stateMutability":"nonpayable"},{"type":"function","name":"symbol","inputs":[],"outputs":[{"name":"","type":"string","internalType":"string"}],"stateMutability":"view"},{"type":"function","name":"totalSupply","inputs":[],"outputs":[{"name":"","type":"uint256","internalType":"uint256"}],"stateMutability":"view"},{"type":"function","name":"transfer","inputs":[{"name":"to","type":"address","internalType":"address"},{"name":"amount","type":"uint256","internalType":"uint256"}],"outputs":[{"name":"","type":"bool","internalType":"bool"}],"stateMutability":"nonpayable"},{"type":"function","name":"transferFrom","inputs":[{"name":"from","type":"address","internalType":"address"},{"name":"to","type":"address","internalType":"address"},{"name":"amount","type":"uint256","internalType":"uint256"}],"outputs":[{"name":"","type":"bool","internalType":"bool"}],"stateMutability":"nonpayable"},{"type":"event","name":"Approval","inputs":[{"name":"owner","type":"address","indexed":true,"internalType":"address"},{"name":"spender","type":"address","indexed":true,"internalType":"address"},{"name":"amount","type":"uint256","indexed":false,"internalType":"uint256"}],"anonymous":false},{"type":"event","name":"Transfer","inputs":[{"name":"from","type":"address","indexed":true,"internalType":"address"},{"name":"to","type":"address","indexed":true,"internalType":"address"},{"name":"amount","type":"uint256","indexed":false,"internalType":"uint256"}],"anonymous":false}],"bytecode":{"object":"0x608060405234801561001057600080fd5b5061117e806100206000396000f3fe608060405234801561001057600080fd5b50600436106100df5760003560e01c80633644e5151161008c57806395d89b411161006657806395d89b41146101cb578063a9059cbb146101d3578063d505accf146101e6578063dd62ed3e146101f957600080fd5b80633644e5151461018357806370a082311461018b5780637ecebe00146101ab57600080fd5b806318160ddd116100bd57806318160ddd1461013a57806323b872dd14610151578063313ce5671461016457600080fd5b806306fdde03146100e4578063095ea7b3146101025780631624f6c614610125575b600080fd5b6100ec610224565b6040516100f99190610b7f565b60405180910390f35b610115610110366004610c15565b6102b2565b60405190151581526020016100f9565b610138610133366004610d2a565b61032c565b005b61014360035481565b6040519081526020016100f9565b61011561015f366004610d9e565b61042b565b6002546101719060ff1681565b60405160ff90911681526020016100f9565b61014361059f565b610143610199366004610dda565b60046020526000908152604090205481565b6101436101b9366004610dda565b60086020526000908152604090205481565b6100ec6105c5565b6101156101e1366004610c15565b6105d2565b6101386101f4366004610df5565b610683565b610143610207366004610e5f565b600560209081526000928352604080842090915290825290205481565b6000805461023190610e92565b80601f016020809104026020016040519081016040528092919081815260200182805461025d90610e92565b80156102aa5780601f1061027f576101008083540402835291602001916102aa565b820191906000526020600020905b81548152906001019060200180831161028d57829003601f168201915b505050505081565b33600081815260056020908152604080832073ffffffffffffffffffffffffffffffffffffffff8716808552925280832085905551919290917f8c5be1e5ebec7d5bd14f71427d1e84f3dd0314c0f7b2291e5b200ac8c7c3b9259061031a9086815260200190565b60405180910390a35060015b92915050565b60095460ff161561039e576040517f08c379a000000000000000000000000000000000000000000000000000000000815260206004820152601360248201527f414c52454144595f494e495449414c495a45440000000000000000000000000060448201526064015b60405180910390fd5b60006103aa8482610f36565b5060016103b78382610f36565b50600280547fffffffffffffffffffffffffffffffffffffffffffffffffffffffffffffff001660ff83161790556103ed6109c9565b6006556103f86109e2565b6007555050600980547fffffffffffffffffffffffffffffffffffffffffffffffffffffffffffffff0016600117905550565b73ffffffffffffffffffffffffffffffffffffffff831660009081526005602090815260408083203384529091528120547fffffffffffffffffffffffffffffffffffffffffffffffffffffffffffffffff81146104bf5761048d8184610a85565b73ffffffffffffffffffffffffffffffffffffffff861660009081526005602090815260408083203384529091529020555b73ffffffffffffffffffffffffffffffffffffffff85166000908152600460205260409020546104ef9084610a85565b73ffffffffffffffffffffffffffffffffffffffff808716600090815260046020526040808220939093559086168152205461052b9084610b02565b73ffffffffffffffffffffffffffffffffffffffff80861660008181526004602052604090819020939093559151908716907fddf252ad1be2c89b69c2b068fc378daa952ba7f163c4a11628f55a4df523b3ef9061058c9087815260200190565b60405180910390a3506001949350505050565b60006006546105ac6109c9565b146105be576105b96109e2565b905090565b5060075490565b6001805461023190610e92565b336000908152600460205260408120546105ec9083610a85565b336000908152600460205260408082209290925573ffffffffffffffffffffffffffffffffffffffff8516815220546106259083610b02565b73ffffffffffffffffffffffffffffffffffffffff84166000818152600460205260409081902092909255905133907fddf252ad1be2c89b69c2b068fc378daa952ba7f163c4a11628f55a4df523b3ef9061031a9086815260200190565b428410156106ed576040517f08c379a000000000000000000000000000000000000000000000000000000000815260206004820152601760248201527f5045524d49545f444541444c494e455f455850495245440000000000000000006044820152606401610395565b600060016106f961059f565b73ffffffffffffffffffffffffffffffffffffffff8a16600090815260086020526040812080547f6e71edae12b1b97f4d1f60370fef10105fa2faae0126114a169c64845d6126c9928d928d928d929091906107548361107f565b9091555060408051602081019690965273ffffffffffffffffffffffffffffffffffffffff94851690860152929091166060840152608083015260a082015260c0810188905260e001604051602081830303815290604052805190602001206040516020016107f59291907f190100000000000000000000000000000000000000000000000000000000000081526002810192909252602282015260420190565b604080517fffffffffffffffffffffffffffffffffffffffffffffffffffffffffffffffe08184030181528282528051602091820120600084529083018083525260ff871690820152606081018590526080810184905260a0016020604051602081039080840390855afa158015610871573d6000803e3d6000fd5b50506040517fffffffffffffffffffffffffffffffffffffffffffffffffffffffffffffffe0015191505073ffffffffffffffffffffffffffffffffffffffff8116158015906108ec57508773ffffffffffffffffffffffffffffffffffffffff168173ffffffffffffffffffffffffffffffffffffffff16145b610952576040517f08c379a000000000000000000000000000000000000000000000000000000000815260206004820152600e60248201527f494e56414c49445f5349474e45520000000000000000000000000000000000006044820152606401610395565b73ffffffffffffffffffffffffffffffffffffffff81811660009081526005602090815260408083208b8516808552908352928190208a90555189815291928b16917f8c5be1e5ebec7d5bd14f71427d1e84f3dd0314c0f7b2291e5b200ac8c7c3b925910160405180910390a35050505050505050565b6000610b7b806109db63ffffffff8216565b9250505090565b60007f8b73c3c69bb8fe3d512ecc4cf759cc79239f7b179b0ffacaa9a75d522b39400f6000604051610a1491906110b7565b60405180910390207fc89efdaa54c0f20c7adf612882df0950f5a951637e0307cdcb4c672f298b8bc6610a456109c9565b604080516020810195909552840192909252606083015260808201523060a082015260c00160405160208183030381529060405280519060200120905090565b600081831015610af1576040517f08c379a000000000000000000000000000000000000000000000000000000000815260206004820152601c60248201527f45524332303a207375627472616374696f6e20756e646572666c6f77000000006044820152606401610395565b610afb828461114b565b9392505050565b600080610b0f838561115e565b905083811015610afb576040517f08c379a000000000000000000000000000000000000000000000000000000000815260206004820152601860248201527f45524332303a206164646974696f6e206f766572666c6f7700000000000000006044820152606401610395565b4690565b60006020808352835180602085015260005b81811015610bad57858101830151858201604001528201610b91565b5060006040828601015260407fffffffffffffffffffffffffffffffffffffffffffffffffffffffffffffffe0601f8301168501019250505092915050565b803573ffffffffffffffffffffffffffffffffffffffff81168114610c1057600080fd5b919050565b60008060408385031215610c2857600080fd5b610c3183610bec565b946020939093013593505050565b7f4e487b7100000000000000000000000000000000000000000000000000000000600052604160045260246000fd5b600082601f830112610c7f57600080fd5b813567ffffffffffffffff80821115610c9a57610c9a610c3f565b604051601f83017fffffffffffffffffffffffffffffffffffffffffffffffffffffffffffffffe0908116603f01168101908282118183101715610ce057610ce0610c3f565b81604052838152866020858801011115610cf957600080fd5b836020870160208301376000602085830101528094505050505092915050565b803560ff81168114610c1057600080fd5b600080600060608486031215610d3f57600080fd5b833567ffffffffffffffff80821115610d5757600080fd5b610d6387838801610c6e565b94506020860135915080821115610d7957600080fd5b50610d8686828701610c6e565b925050610d9560408501610d19565b90509250925092565b600080600060608486031215610db357600080fd5b610dbc84610bec565b9250610dca60208501610bec565b9150604084013590509250925092565b600060208284031215610dec57600080fd5b610afb82610bec565b600080600080600080600060e0888a031215610e1057600080fd5b610e1988610bec565b9650610e2760208901610bec565b95506040880135945060608801359350610e4360808901610d19565b925060a0880135915060c0880135905092959891949750929550565b60008060408385031215610e7257600080fd5b610e7b83610bec565b9150610e8960208401610bec565b90509250929050565b600181811c90821680610ea657607f821691505b602082108103610edf577f4e487b7100000000000000000000000000000000000000000000000000000000600052602260045260246000fd5b50919050565b601f821115610f31576000816000526020600020601f850160051c81016020861015610f0e5750805b601f850160051c820191505b81811015610f2d57828155600101610f1a565b5050505b505050565b815167ffffffffffffffff811115610f5057610f50610c3f565b610f6481610f5e8454610e92565b84610ee5565b602080601f831160018114610fb75760008415610f815750858301515b7fffffffffffffffffffffffffffffffffffffffffffffffffffffffffffffffff600386901b1c1916600185901b178555610f2d565b6000858152602081207fffffffffffffffffffffffffffffffffffffffffffffffffffffffffffffffe08616915b8281101561100457888601518255948401946001909101908401610fe5565b508582101561104057878501517fffffffffffffffffffffffffffffffffffffffffffffffffffffffffffffffff600388901b60f8161c191681555b5050505050600190811b01905550565b7f4e487b7100000000000000000000000000000000000000000000000000000000600052601160045260246000fd5b60007fffffffffffffffffffffffffffffffffffffffffffffffffffffffffffffffff82036110b0576110b0611050565b5060010190565b60008083546110c581610e92565b600182811680156110dd57600181146111105761113f565b7fffffffffffffffffffffffffffffffffffffffffffffffffffffffffffffff008416875282151583028701945061113f565b8760005260208060002060005b858110156111365781548a82015290840190820161111d565b50505082870194505b50929695505050505050565b8181038181111561032657610326611050565b808201808211156103265761032661105056fea164736f6c6343000817000a","linkReferences":{}},"methodIdentifiers":{"DOMAIN_SEPARATOR()":"3644e515","allowance(address,address)":"dd62ed3e","approve(address,uint256)":"095ea7b3","balanceOf(address)":"70a08231","decimals()":"313ce567","initialize(string,string,uint8)":"1624f6c6","name()":"06fdde03","nonces(address)":"7ecebe00","permit(address,address,uint256,uint256,uint8,bytes32,bytes32)":"d505accf","symbol()":"95d89b41","totalSupply()":"18160ddd","transfer(address,uint256)":"a9059cbb","transferFrom(address,address,uint256)":"23b872dd"},"id":22}